:100000000C94E3020C941B030C941B030C941B0331
:100010000C941B030C941B030C941B030C941B03E8
:100020000C941B030C941B030C94E7210C94A32148
:100030000C94E4220C941B030C941B030C941B03E0
:100040000C941B030C941B030C941B030C941B03B8
:100050000C941B030C94C0220C941B030C941B03E4
:100060000C941B030C941B030C941B030C941B0398
:100070000C941B030C941B030C941B030C941B0388
:100080000C941B030C941B030C941B030C941B0378
:100090000C941B030C941B030C941B030C941B0368
:1000A0000C941B030C941B030C941B0335001E00C3
:1000B0001F0020002100220023002400250026002C
:1000C00027002D002E002A002A002B0014001A0001
:1000D0000800150017001C0018000C001200130087
:1000E0002F00300031004C002900040016000700EA
:1000F00009000A000B000D000E000F003300340051
:10010000280028004B00E1001D001B00060019001C
:10011000050011001000360037003800E500E5004A
:1001200052004E00E000E300E200E30021522C0008
:100130002C002252E700E600E40024525000510057
:100140004F00010001000100010001000100010059
:100150000100010001000100010001000100010097
:100160000100010001000100010001000100010087
:100170000100010001000100010001000100010077
:100180000100010001000100010001002D026700D3
:100190000100010001000100010001000100010057
:1001A0000100010001000100010001000100010047
:1001B0000100010001000100010001000100010037
:1001C00001000100010001002352010001000100B3
:1001D000010001000100010000003A003B003C006A
:1001E0003D003E003F00400041004200430044000B
:1001F00045000000000000000000000000000000BA
:1002000000000000000000000000000000000000EE
:1002100000000000000000000000000000000000DE
:10022000000056002E020000000000000000000048
:100230004A00000000000000000000000000000074
:1002400000000000000000000000000000004D0061
:100250000000000000000000000023520000010028
:10026000000000000000000000000000000000008E
:10027000000000000000000000000000000000007E
:10028000000000000000000000000000000000006E
:10029000000000000000000000000000000000005E
:1002A000000000000000000000000000000000004E
:1002B000000000000000000000000000000000003E
:1002C000000000000000000000000000000000002E
:1002D000000000000000000000000000000000001E
:1002E000000000000000000000000000000000000E
:1002F00001000000010000000000000000000000FC
:1003000000000000000000000000000000000000ED
:1003100000000000000000000000000003780278E8
:100320000478000000000000000000000000000051
:1003300000000000000000000000000000000000BD
:10034000007C00000000027C0000000000000000B3
:1003500000000000000000002A78337829780000AF
:1003600000002078000000000000000000000000F5
:1003700000000000000024782778237800000000A7
:10038000000000000000000000000000000000006D
:100390000000010022782878217800010101010184
:1003A000010101010202020202020202020303032E
:1003B00003030303030404040404040405050505FE
:1003C00005060606060607070707070808080809BE
:1003D0000909090A0A0A0B0B0B0C0C0C0D0D0D0E6A
:1003E0000E0E0F0F0F1010111111121213131414FF
:1003F000151516161717181819191A1A1B1B1C1D74
:100400001D1E1E1F202021222223242425262627CC
:100410002829292A2B2C2D2D2E2F303132323334FE
:1004200035363738393A3B3C3D3E3F404142434404
:1004300045464748494A4C4D4E4F505153545556E6
:1004400058595A5B5D5E5F616264656668696B6C92
:100450006D6F7072737577787A7B7D7E808283850D
:1004600087888A8C8E8F91939596989A9C9EA0A24D
:10047000A3A5A7A9ABADAFB1B3B5B7BABCBEC0C257
:10048000C4C6C9CBCDCFD1D4D6D8DBDDDFE2E4E71B
:10049000E9EBEEF0F3F5F8FAFDFF05010902A10121
:1004A00085020901A1000509190129081500250186
:1004B0009508750181020501093009311581257FF3
:1004C00095027508810609381581257F9501750803
:1004D0008106050C0A38021581257F950175088172
:1004E00006C0C005010980A101850319012AB700D2
:1004F000150126B700950175108100C0050C090192
:10050000A101850419012AA002150126A002950166
:1005100075108100C005010906A101050719E02930
:10052000E71500250195087501810295017508817F
:10053000010507190029FF150026FF00950675081B
:10054000810005081901290515002501950575018A
:100550009102950175039101C009023B000201005F
:10056000A0FA0904000001030101000921110100A2
:10057000012244000705810308000109040100016C
:1005800003000000092111010001227B0007058200
:1005900003200001120100020000000864697500D8
:1005A0000200010200010A0349004400370035003F
:1005B00000000E03490044004F00420041004F007C
:1005C00000000403090411241FBECFEFDAE0DEBFF0
:1005D000CDBF04B603FE18C08091490590914A052D
:1005E000A0914B05B0914C058730904BA740B04B84
:1005F00059F41092490510924A0510924B05109239
:100600004C05E0E0F8E3099525E0A8EBB2E001C075
:100610001D92A934B207E1F712E0A0E0B1E0E6E0F4
:10062000F2E502C005900D92A83BB107D9F70E94F0
:100630000B230C948C280C9400009091410593702E
:1006400061F081110BC094609093410510921401E8
:10065000809140058160809340050895813210F0BB
:100660009068F2CF880F880F982BEECF482F2091FB
:100670000F059091D60457E0291302C080E0089539
:1006800030E0529FF001539FF00D1124E952FB4FCF
:100690008181681306C08081481303C08581811160
:1006A000EECF2F5F3F4F2770E7CF909141059370BA
:1006B00059F080934205609343054093440580912F
:1006C00040058160809340050895E8EDF0E0808169
:1006D0008E7F80831092E2001092DA001092E10087
:1006E000A0EEB0E08C9181608C9380818F778083C5
:1006F00019BCA7EDB0E08C918E7F8C9380818F7EAA
:1007000080831092BF0408952091E4003091E500A9
:1007100095E6A9012091EC00822F817020FF06C090
:100720008091E80080FF06C080E008952091E800F5
:1007300022FD1AC08091CC04882389F0853089F08D
:100740008091EB0085FD0FC02091E4003091E50021
:1007500042175307F9F29150E1F684E0089582E0E0
:10076000089583E0089581E008958091CE0487FF85
:1007700013C08091E80082FF06C08091E8008B776B
:100780008093E80004C08091CC048111F2CF0895D9
:100790008091CC048823D9F38091E80080FFF8CFC2
:1007A0008091E8008E77ECCF982F9093E900242F6A
:1007B000762F50E0891731F07091EC002091ED0018
:1007C0005091F00021FD07C09F5F973071F7809333
:1007D000E90081E008953091EB003E7F3093EB001B
:1007E0003091ED003D7F3093ED003091EB003160B2
:1007F0003093EB007093EC002093ED005093F000E9
:100800002091EE0027FDE0CF80E00895B0E0A0E069
:10081000ECE0F4E00C943827C8EDD0E088818F7EBE
:100820008883E7EDF0E080818160808384E082BF8F
:1008300081E08093BF0488818E7F888302EE10E080
:10084000F80110821092DA0081EEC82ED12CF60148
:10085000108288818F7788838881806888838881E7
:100860008F7D888319BC1092CC041092CD04109215
:10087000CB041092CA0490EEE92EF12CF70180818E
:100880008B7F808388818160888342E060E080E0A4
:100890000E94D403F60180818E7F8083F8018081DD
:1008A00081608083808188608083F70180818E7F72
:1008B0008083888180618883CDB7DEB7E8E00C94BF
:1008C0005427FC018091D4049091D5048617970792
:1008D000A0F06115710529F49091E8009E7790933E
:1008E000E80090E06115710551F4911108C0809104
:1008F000E80082FF34C080E00895BC01F2CF80910F
:10090000CC048823C1F18530C1F18091E80083FDDA
:1009100030C08091E80082FDEACF8091E80080FF3E
:10092000E1CF8091F3002091F200382F611571051D
:1009300019F02830310558F091E02830310509F0E0
:1009400090E02091E8002E772093E800CBCF8191B2
:100950008093F100615071092F5F3F4FE7CF809185
:10096000CC04882341F0853041F08091E80083FF7A
:10097000BECF81E0089582E0089583E00895089550
:100980008091C10408959C014FB7F8948091BB04F5
:100990009091BC04A091BD04B091BE044FBF821BD6
:1009A000930B08952FB7F8948091BB049091BC04E9
:1009B000A091BD04B091BE042FBF0895ECEBF2E00E
:1009C0009191891303C0DF0111971C9292E0E23CE0
:1009D000F907B1F70895ACEBB2E0EFEF90E02D919D
:1009E000821751F0EF3F19F4211101C0E92F9F5FE9
:1009F0009630A9F7EF3F09F408950E2E000CFF0B77
:100A0000E654FD4F82830895A3E0B0E0EAE0F5E00C
:100A10000C943E272091B8043091B9042817390767
:100A2000A1F09093B9048093B804E091B604F091DA
:100A3000B704309751F024E029839B838A83008494
:100A4000F185E02DCE01019609952396E2E00C9404
:100A50005A27A3E0B0E0EFE2F5E00C943E272091A6
:100A6000B4043091B50428173907A1F09093B50468
:100A70008093B404E091B604F091B704309751F03C
:100A800023E029839B838A830084F185E02DCE01B6
:100A9000019609952396E2E00C945A27E091B6045A
:100AA000F091B704309729F00190F081E02D09957D
:100AB000089580E008950E94D2049C019091B004B2
:100AC0008091B104982B21F03093AD042093AC04B5
:100AD0009091B2048091B304982B21F03093AB0431
:100AE0002093AA04E091B604F091B704309749F03E
:100AF00082E08093AE040680F781E02D8EEA94E0D8
:100B0000099508958091A90480FD16C081FD16C045
:100B100082FD16C08091A8048823A1F0883280F459
:100B200028E0829FC001112468E270E00E9414272F
:100B3000862F672B39F0089582E0089584E00895A8
:100B400088E0089581E008958091A90480FD14C093
:100B500081FD14C082FD16C08091A704882381F016
:100B60008E3180F420E5829FC00111246EE170E097
:100B70000E941427862F089584E1089588E208953D
:100B800088E0089580E50895282F35EB2303C00100
:100B9000112497FF04C080589109892F0895805827
:100BA0009F4FFBCFFA01811101C0FB010995089508
:100BB000FC01EE0FFF1FDF01A80FB91FA855BC4FA6
:100BC00011963C911197361307C03C91341304C021
:100BD00012963C91321751F031E03093A703E80FA1
:100BE000F91FE855FC4F6183408322830895FF92EB
:100BF0000F931F93CF93DF93182F062FF42ED0E07F
:100C0000C0E02F2D402F612FCE010E94D8052196E4
:100C1000C535D105B1F7CDB7DEB7E5E00C94572760
:100C20001092A7030895E1E4F5E0248130E1231B4D
:100C300008F420E024838091400581608093400582
:100C40000895E1E4F5E0248130E1230F08F42FEF6B
:100C50002483809140058160809340050895E1E4FC
:100C6000F5E0438120E1421B08F440E0818162818C
:100C700090E00E9455030895E1E4F5E0438120E10E
:100C8000420F08F44FEF8181628190E00E9455038A
:100C90000895E1E4F5E0628120E1621B08F460E080
:100CA0008181438190E00E9455030895E1E4F5E0DD
:100CB000628120E1620F08F46FEF8181438190E04F
:100CC0000E9455030895E1E4F5E08181438162814A
:100CD0008850990B0E9455030895E1E4F5E0818165
:100CE00090E04381628108960E94550308958091A7
:100CF000410586958695815009F480E20E941D0386
:100D0000089580914105869586958F5F813208F020
:100D100081E00E941D03089591E1899F802D112497
:100D2000980F963508F095E50895EF92FF920F938E
:100D30009701201B31092F3F310519F010F02FEFDB
:100D400030E02095382F320F08F43FEF832F0F91BA
:100D5000FF90EF900895EF92FF920F939701201B61
:100D600031092F3F310519F010F02FEF30E0322F0D
:100D70003095482F430F08F44FEF842F620F0F91E7
:100D8000FF90EF900895EF92FF920F93972F093401
:100D900038F4B701601B71096F3F710519F010F04D
:100DA0006FEF70E0485F5F4F4131510540F0A9019E
:100DB000485F5F4F4131510510F06FEF70E0609573
:100DC000482F460F08F44FEF842F37FF02C02D5FE6
:100DD0003F4F359527953595279560914205620FD0
:100DE000792F0F91FF90EF900895EF92FF920F935C
:100DF0001F930E0D1F2D111DF90137FF03C0F19533
:100E0000E195F10924E0EE0FFF1F2A95E1F7EF3F8E
:100E1000F10519F014F0EFEFF0E09A0157FF03C06D
:100E200031952195310994E0220F331F9A95E1F70E
:100E30002E173F070CF4F901E00FF11FEF3FF1050A
:100E400019F010F0EFEFF0E0E095282F3E2F230F80
:100E500008F42FEF822F1F910F91FF90EF900895CC
:100E6000EF92FF920F93970195E0099F200D311D9E
:100E700011242F3F310519F010F02FEF30E02095AD
:100E8000382F320F08F43FEF832F0F91FF90EF9030
:100E9000089522E8241B08F420E0620F089540958D
:100EA000282F429F412D1124842F0895EF920F93F4
:100EB000972F23E0029FB0011124759567956E0D61
:100EC000792F0F91EF900895322F50E0FA01EE0F35
:100ED000FF1FE754FE4F9081905297FD9195440F6C
:100EE000551FFA01E854FE4F2081231B330B290FB5
:100EF000311D97FD3A95620F0895E42FF0E0EE0F53
:100F0000FF1FE754FE4F6081621B0895E42FF0E05D
:100F1000EE0FFF1FE854FE4F6081621B0895622FA1
:100F20000895E42FF0E0EE0FFF1FE854FE4F4081DC
:100F300034EE439F412D1124E82FF0E050E0445E51
:100F40005F4FDA01A21BB1099D01B7FF03C03195C4
:100F50002195310993E0220F331F9A95E1F7AF01F4
:100F6000421B530B9A0157FD20E0582F259F212D3E
:100F70001124822F0895E42FF0E0EE0FFF1FE854B4
:100F8000FE4F408134EE439F412D1124E72FF0E0C6
:100F900050E0445E5F4FDA01A21BB1099D01B7FF2B
:100FA00003C031952195310993E0220F331F9A95A3
:100FB000E1F7AF01421B530B9A0157FD20E0279F39
:100FC000212D1124722F08950E94F70508950E9483
:100FD000D8050895FC019B01009729F480E077FF74
:100FE0002BC080E80895AC0197FF04C04427552723
:100FF000481B590BB901640F751F37FD10C0241B26
:10100000350BC901A5E0880F991FAA95E1F70E9449
:10101000142780E2861BF7FF0FC081950895CB014E
:1010200065E0880F991F6A95E1F7BA01621B730B9F
:101030000E94142780E6EECF08950F93CF93DF939D
:10104000D72FC82FC901BA010E94EA07682F600F85
:101050007D2F8C2FDF91CF910F910895EF920F93F9
:101060001F93CF93DF93D62FC72F182FC9010E19C7
:10107000010FBA010E94EA07081B202F219F212D92
:101080001124822F6D2F7C2FDF91CF911F910F9113
:10109000EF900895EF920F931F93CF93DF93D62F86
:1010A000172FC82FC9010E19070FBA010E94EA07AE
:1010B000702F781B719F712D11246D2F8C2FDF9154
:1010C000CF911F910F91EF9008950F931F93CF939E
:1010D000DF93D62FC72F182FC901212F201B022FD6
:1010E000BA010E94EA07982F990F990F891B800F68
:1010F000282F219F212D1124822F6D2F7C2FDF91EE
:10110000CF911F910F9108950F931F93CF93DF936A
:10111000D62F172FC82FC901272F201B022FBA0146
:101120000E94EA07982F990F990F782F791B700F5B
:10113000719F712D11246D2F8C2FDF91CF911F91F5
:101140000F910895AC018230910508F408959FEF46
:10115000413E8EE1580740F49A0195E03695279577
:101160009A95E1F798E0920F61E0E62FE90FFF27EB
:10117000FF1F9F0135952795822F229FF001239F06
:10118000F00DF00D11244E175F0738F49FEF920F0A
:10119000961758F78FEF860F08952F3FE9F361E018
:1011A000620FF6CF0F93CF93DF93D72FC82F47FD52
:1011B000419588E390E0841B910947FD9395889FB2
:1011C000B001899F700D700D1124229FC001239FD3
:1011D000900D900D1124860F971F0E94A208982F42
:1011E000990F890F682F600F7D2F8C2FDF91CF9182
:1011F0000F91089530E020E0869F212D969F200DCD
:10120000311D1124C9010895AF92BF92CF92DF9290
:10121000FF920F931F93CF93DF93362F472FE82F23
:10122000F0E0E656FC4F71110FC0E4918E2F2E2F87
:101230006E2F722FDF91CF911F910F91FF90DF9052
:10124000CF90BF90AF900895C72FD0E02491F22E99
:10125000022F10E056E0659FC0011124EFEFF0E08F
:10126000BF010E940027832F90E0880F991F35E56A
:10127000369FD001379FB00D11248A1B9B0B982FEE
:10128000990F980F6F01CC1ADD0AC09ED001C19E44
:10129000B00DD09EB00D11248B2F499FA0011124B9
:1012A000452F55276F01C41AD50AC09EA001C19EC3
:1012B000500DD09E500D11245F01A91AB108AC9EAB
:1012C0006001AD9ED00CBC9ED00C1124CD2CDD2431
:1012D000EC19FD09E09FE001E19FD00DF09FD00DDA
:1012E0001124ED2F62307105A1F050F461157105E4
:1012F00009F49ECF6130710581F0EB2F852F98CFD7
:101300006430710569F080F06630710509F490CFA2
:10131000F4CFE22F2B2F8D2F8BCFE22F252F88CFCD
:10132000EB2F822F2D2F84CF2B2F8F2DE52F80CFCA
:101330002F923F925F926F927F928F929F92AF9285
:10134000BF92CF92DF92EF92FF920F931F93CF93B2
:10135000DF93CDB7DEB729970FB6F894DEBF0FBE87
:10136000CDBF89837D836C83809111010E948C069F
:101370009A83209114052B83E82FF0E0F987E88702
:10138000CF01880F991F9C0128543E4F6901398174
:10139000832F90E0FC013196FF83EE838A8198854C
:1013A0009817E8F081E0EA81E53508F080E02996B9
:1013B0000FB6F894DEBF0FBECDBFDF91CF911F9166
:1013C0000F91FF90EF90DF90CF90BF90AF909F90E4
:1013D0008F907F906F905F903F902F900895E88559
:1013E000F985EE59FD4F8081909112018923F1F02A
:1013F00020904205309043052E813F812C5E3A4F6C
:101400003901598010E0FB815F16D0F0209144052E
:10141000129F112D1124B101812F0E940409462F22
:10142000282F672F888599850E94E70728853985A9
:101430002F5F3F4F3987288732E0C30ED11CAECFD4
:10144000F30181913F01F601A080A81ABB088180B9
:10145000F3018781881A9908AA9C9001AB9C300DF2
:10146000300D1124889CC001899C900D900D112491
:10147000820F931F0E94A208082F6091450521E06A
:10148000620F08F46FEFF301EE0FFF1FE451F54018
:10149000858996890E94FA087C019401A501B10111
:1014A000812FEC81FD8109951B015394182FABCF3F
:1014B000B0E0A0E0EEE5FAE00C9439278C018091D1
:1014C00011010E948C06C82FD92E2091450531E0CC
:1014D000230F08F42FEF30E050E040E06FEF7FEF94
:1014E00080E090E00E9429287901D0E02C2FCD15D2
:1014F00050F081E0F4E5FD1508F480E0CDB7DEB7EB
:10150000E7E00C945527FE01EE59FD4F8081909144
:101510001201892311F1409114054150042E000C51
:10152000550B47FF1CC0C7016091450521E0620FC4
:1015300008F46FEF0E94FA08AC01609142057091C7
:10154000430580914405F80109950E940409462F3E
:10155000282F672FCE010E94E7072196C7CFFA01F7
:10156000EC5EFA4F818982130AC0FA01EE0FFF1F69
:10157000EC5EFA4F818D928D8E159F05A8F2415039
:101580005109CFCFB0E0A0E0E8ECFAE00C943927A5
:101590007C01809111010E948C06C82F192F609147
:1015A0004505669580911005909111050E94FA08F5
:1015B000D82ED0E0C11748F081E0153508F080E062
:1015C000CDB7DEB7E7E00C945527FE01EE59FD4F8D
:1015D000808190911201892311F1CE01880F991F0A
:1015E00083599E4FFC01E45BFF4F20812052330B57
:1015F000855B9F4FFC0140814057550B6091420530
:1016000070914305809144050D2DF70109950E94C5
:101610000409462F282F672FCE010E94E707219645
:10162000C9CFB0E0A0E0E7E1FBE00C9434276C0107
:10163000809111010E948C06C82F192F60914505D9
:10164000669580911005909111050E94FA08F82E78
:10165000D0E0C11748F081E0153508F080E0CDB743
:10166000DEB7ECE00C945027FE01EE59FD4F80816F
:10167000909112018923C9F1CE01880F991F8359D6
:101680009E4FFC01E55BFF4F2081422F4057550BD9
:101690005A01845B9F4FFC018081282F2052330B1D
:1016A0004901449F9001459F300D300D1124889CC5
:1016B000C001899C900D900D1124820F931F0E94F0
:1016C000A208082F6091420570914305809144055E
:1016D000EF2C9401A501F60109950E940409462FFB
:1016E000282F672FCE010E94E7072196B2CFEF92F5
:1016F000FF920F931F93CF93DF937C018091110191
:101700000E948C06C82F192F609145056695669535
:1017100021E0620F08F46FEF8091100590911105A0
:101720000E94FA08082FD0E0C11748F081E0153573
:1017300008F080E0CDB7DEB7E6E00C945627FE0156
:10174000EE59FD4F808190911201892391F06091B3
:1017500042057091430580914405202F4C2FF701DD
:1017600009950E940409462F282F672FCE010E9459
:10177000E7072196D9CF80E00895F894E82FE29505
:10178000EF70F0E031A1282F2F7081E090E001C0D0
:10179000880F2A95EAF7982F9095932391A392A109
:1017A000892B82A3789408959091120392FF10C020
:1017B00041E0282F2471243009F040E031E0282F47
:1017C0002871283009F030E0431711F02CE082270F
:1017D00093FF10C041E0282F2471243109F040E02C
:1017E00031E0282F2871283109F030E0431711F03B
:1017F0002CE082273091130330FF10C051E0282FD6
:101800002171213009F050E041E0282F2871283063
:1018100009F040E0541711F029E0822731FF10C091
:1018200041E0282F2171213109F040E031E0282FDB
:101830002871283109F030E0431711F029E08227A0
:1018400094FD877E089582389105B9F1B0F4813313
:10185000910509F47DC048F48932910509F46DC001
:101860008A32910509F47BC008958533910509F406
:101870005FC08933910509F10895833E9105D9F13F
:1018800038F4803E910529F1823E910579F1089561
:10189000863E9105D9F1873E910509F43EC0843E0C
:1018A000910541F52091130321FF24C0809112037B
:1018B00084FD19C087EE90E00895209112032370F3
:1018C00009F05AC02091130323FF14C089E290E06D
:1018D00008952091120320FD38C03091130330FF8A
:1018E00009C024FF43C090E080E0089520911203D6
:1018F00022FDF7CF08952091120322FD3AC03091C6
:10190000130330FD39C024FFF5CFEDCF2091120332
:1019100023FFF0CF24FDE7CFCDCF2091120323FD8D
:101920002EC03091130331FFEECF84EE90E0089586
:101930002091120325FFDECFC9CF2091120325FD90
:1019400021C02091130323FFD5CF89E390E0D2CFAC
:101950002091120326FFCECF8AE290E008952091D5
:10196000120326FFC7CF81E390E0089583EE90E055
:10197000089582EE90E0089580EE90E0089586EE5E
:1019800090E0089585E390E00895972F7530B8F4BE
:101990006F30A8F48530B0F470E02FE0929F600DB6
:1019A000711D1124FB019BE4899FE00DF11D1124A1
:1019B000EE0FFF1FE455FF4F85919491089580E04D
:1019C00090E0089581E0FCCF1F93CF93DF930E94B6
:1019D000230CEC01C11580E5D807F0F5C11580E4B2
:1019E000D80708F09CC0C03ED10520F5CD3CD105FC
:1019F00008F082C0C83AD10578F4C53AD10508F09C
:101A000073C0C130D10519F1209709F1C430D10557
:101A1000F0F4D0E0C0E01BC0C33CD105D0F7C85AF9
:101A2000D0E0CC0FDD1FC55EDE4F0990D881C02D00
:101A3000D4640DC0C11580E2D80708F0D1C0C1152B
:101A400081E0D80708F05AC0C83ED10510F7CE0192
:101A5000DF91CF911F910895C03682E5D80718F520
:101A6000C03482E5D80708F06BC0C03282E5D807E1
:101A700008F05FC0C11582E5D80708F497C02C2F85
:101A80002695269580E2289F900111248C2F837043
:101A9000C1E0D0E002C0CC0FDD1F8A95E2F7C22B77
:101AA000D32BDD68D4CFC03A82E5D80760F4C038C4
:101AB00082E5D80708F459C0CF71D0E0DC2FCC27DD
:101AC000C46FD06AC4CFC03C82E5D80708F462C0B6
:101AD000C03E82E5D80708F09CCFDC2FCC27CC276E
:101AE000DF71C06FD06AB3CFC55AD0E0C85EDE4F99
:101AF000C881D0E0D064ABCFD065A9CF8D2F0E9434
:101B0000D40B182FCE0199270E94230CC12FD0E0AF
:101B1000DC2FCC27CC27DF71C82BD92B98CFCE0157
:101B200099270E94230CCC27DF70C82BD92BD06AB1
:101B30008ECFCF71D0E0DC2FCC27C16FD06A87CF9A
:101B40002C2F26952695277080E2289F900111243E
:101B50008C2F8370C1E0D0E002C0CC0FDD1F8A95CE
:101B6000E2F7C22BD32BDC6872CF2C2F269526955B
:101B7000277080E2289F900111248C2F8370C1E090
:101B8000D0E002C0CC0FDD1F8A95E2F7C22BD32B29
:101B9000DA685DCF8C2F8F710E94D40BC82FD0E0F4
:101BA000DC2FCC27CC27DF71D06251CF8C2F8F71E7
:101BB0000E94D40B55E0D695C7955A95E1F7CF70A2
:101BC000D0E0DC2FCC27282F30E084FF05C044E094
:101BD000220F331F4A95E1F7C22BD32BD06937CFA1
:101BE0008D2F8F710E94D40B182FCE0199270E9440
:101BF000230CC12FD0E0DC2FCC27CC27DF71C82BE2
:101C0000D92BD2CF80959091FE0298239093FE021B
:101C1000089580910F059091D604981301C00895FE
:101C20008F5F8770FACFB0E0A0E0E9E1FEE00C94AE
:101C300037277C0100911003109111038091FF025E
:101C400090910003082B192BCFE0D0E0CC24C39453
:101C5000D12CBC2EC6010C2E02C0880F991F0A94ED
:101C6000E2F780239123892B49F4219790F7B12C37
:101C70008B2DCDB7DEB7E9E00C945327B7018C2F3D
:101C80000E94C50C0E94E40C019779F3F1CFCF9329
:101C9000DF93EC010E94130EBE010E94C50C0E944E
:101CA000E40CDF91CF910895953078F58F3068F589
:101CB000E82FF0E08FE0989FE00DF11D11249E2F9A
:101CC000977083E0F695E7958A95E1F7EE0FFF1F91
:101CD000EE0FFF1FEC53FD4F50E040E080E02191FC
:101CE00030E0092E02C0369527950A94E2F721705C
:101CF0003327042E01C0220F0A94EAF7822B4F5F8C
:101D00005F4F4430510559F7089580E008959530AC
:101D100098F58F3088F5E82FF0E08FE0989FE00D80
:101D2000F11D11248E2F877041E001C0440F8A9568
:101D3000EAF783E0F695E7958A95E1F7EE0FFF1F46
:101D4000EE0FFF1FEC53FD4F30E020E070E05191AB
:101D5000DF011197CB01022E02C0969587950A9458
:101D6000E2F7817081958527842385278C932F5FE7
:101D70003F4F2430310559F7089590931103809314
:101D80001003089521E030E002C0220F331F8A952E
:101D9000E2F72095309580911003909111038223F2
:101DA00093230E94BD0E08959091F302809589239C
:101DB0008093F302282F277069F4891759F09091C6
:101DC000130392FF07C08695869586950E94C20EE2
:101DD0001092F302089521E030E002C0220F331F79
:101DE0008A95E2F78091100390911103822B932B37
:101DF0000E94BD0E0895909300038093FF02089502
:101E0000FC0124812223C1F0808191810E94470E30
:101E100092959F70963091F058F4925F9F70923037
:101E200058F4803F19F030F4883E30F481E0089592
:101E30009A5FF4CF843FD1F380E00895883EB0F3F9
:101E4000813FD1F7F3CF4091B0049091B20420913B
:101E5000B304662309F469C0942B922B2091B1043A
:101E6000922B31F098E09093A70491E09093A8040E
:101E70008D3C41F40E94A40581958093B1040E9499
:101E80005B0508958E3C19F40E94A405F6CF8F3CA3
:101E900031F40E94A40581958093B004F0CF803D79
:101EA00019F40E94A405F8CF893D29F40E94820507
:101EB0008093B204E4CF8A3D21F40E94820581958B
:101EC000F7CF8B3D31F40E94820581958093B30456
:101ED000D6CF8C3D19F40E948205F8CF9FE2980F6F
:101EE000983070F4815D990B21E030E001C0220F41
:101EF0008A95EAF78091AF04822B8093AF04BFCF1D
:101F00008D3D31F48091A90481608093A904B7CFFD
:101F10008E3D21F48091A9048260F7CF8F3D09F0B6
:101F2000AECF8091A9048460F0CF8D3C59F48091AC
:101F3000B10487FF0DC01092B10441110BC0109283
:101F4000A70408C08E3C81F48091B10418169CF35C
:101F5000442381F08091B2049091B304892B09F05D
:101F60008ECF1092A8048BCF8F3C49F447FFF0CF5F
:101F70001092B0048091B1048111ECCFE0CF803D8C
:101F800019F41416ACF3E4CF893D29F4191604F7BB
:101F90001092B204DDCF8A3D19F497FFD9CFF8CF64
:101FA0008B3D29F427FFD4CF1092B304D1CF8C3DC1
:101FB00019F41216CCF3CCCF9FE2980F983090F41E
:101FC000815D990B21E030E0B90102C0660F771FF7
:101FD0008A95E2F7CB0180959091AF048923809395
:101FE000AF04B6CF8D3D31F48091A9048E7F8093EC
:101FF000A904AECF8E3D21F48091A9048D7FF7CF47
:102000008F3D09F0A5CF8091A9048B7FF0CFA6E08A
:10201000B0E0EDE0F0E10C943D2749835A8349811B
:102020005A819923A1F0222391F0CA010E94130E34
:10203000182F682F89819A810E94870E69817A8181
:10204000812F0E94C50C2696E3E00C945927CA0103
:102050000E94540E182FF2CF0F931F93CF93DF934C
:102060008B01EA019091CC04943061F58093E900F2
:102070008FEF9091E800815095FD06C095ED9A95FF
:10208000F1F700008111F5CF8091E80085FF1AC0BB
:102090000E948403811111C08091E80085FD06C073
:1020A0008091E8008E778093E800F2CFF80181916B
:1020B0008F018093F100219779F78091E8008E7766
:1020C0008093E800DF91CF911F910F91089543E035
:1020D00050E0BC0182E00E942C10089546E050E0E0
:1020E000BC0182E00E942C100895CF93DF93EC0195
:1020F00048E050E0BC0181E00E942C1088E0FE0125
:10210000A2ECB4E001900D928A95E1F7DF91CF91B6
:10211000089581E08093E00080E28093D8001092DF
:10212000C9008FE19EE40197F1F700C0000087E04D
:1021300090EBDC018093490590934A05A0934B05F1
:10214000B0934C0588E19CE00FB6F894A895809375
:1021500060000FBE90936000FFCF8091A70388239B
:1021600041F1809A31B33E7F21B321604FB7F8949B
:1021700088EA93E0FC015191CF0168E021BB0000A7
:1021800000C057FF31BB550F000000C000C000C0A9
:1021900031BB00C06A9591F7F4E0873A9F0751F789
:1021A0004FBF8FE594E00197F1F700C00000109257
:1021B000A7030895E1E4F5E085E3808380911501AC
:1021C00090911601A091170181839283A3838FE7D9
:1021D00084838FEF858348E050E068E170E0CF01B1
:1021E0000E94F527109240050895B0E0A0E0EBEFC3
:1021F000F0E10C9431278091530390915403A09106
:102200005503B09156032FB7F8948090BB0490907B
:10221000BC04A090BD04B090BE042FBF7501640142
:10222000C81AD90AEA0AFB0A2FB7F8944091BB04EE
:102230005091BC046091BD047091BE042FBF4093C7
:1022400053035093540360935503709356031091B6
:102250002A03EAE2F3E0C12FD0E00197AF4FBF4F6E
:1022600088199909AA09BB091D131BC0C0932A0329
:1022700080914105C82FC37019F0C82FC695C69527
:10228000909114019130B9F19923F1F0923009F451
:1022900096C3933009F49CC3CDB7DEB7EFE00C943E
:1022A0004D27218D328D4901B12CA12C881599051E
:1022B000AA05BB0520F4C150DF5F3296D5CF2C0DA7
:1022C0003D1D328F218FF8CF1092110140931005E0
:1022D00050931105609312057093130589E2EAE2A9
:1022E000F3E0A4E1B5E001900D928A95E1F781E079
:1022F00080931401D1CF90910F01C91322C0837034
:1023000020910E0130E091E08217130609F490E06D
:10231000892F81708093130180914605909112015D
:10232000981739F08093120140E060E080E00E944D
:10233000E407C13260F4EC2FF0E0E257F74D0C9463
:10234000282781E0E6CF80911301811102C080E04F
:102350001DC040E060E080E00E94E407F8CF80917B
:1023600011010E948C06082FD92F609142057091AF
:102370004305809144050E940409F62EE72ED82ECD
:1023800010E00D17C8F081E0D53508F790911101E4
:1023900021E0290F2093110181110DC382E0809368
:1023A000140180911301811106C3CC2309F40EC3DB
:1023B000892F0E948C0670CFF801EE59FD4F808165
:1023C00090911201892331F02D2D4F2D6E2DC801D2
:1023D0000E94E7070F5F1F4FD4CF809111010E9429
:1023E0008C06082FF92EE090430510914405D091FA
:1023F00042056D2F7E2D812F0E940409D62EC72EF7
:10240000B82E609145056D0F7E2D812F0E94040925
:10241000D62FE72EA82E10E00F1530F081E024E52E
:102420002F1508F0B3CF93CFF801EE59FD4F9081EF
:1024300080911201892359F02A2D4D2F6E2D90FD88
:1024400003C02B2D4D2D6C2DC8010E94E7070F5F97
:102450001F4FE2CF809111010E948C06F92EE0906F
:102460004305D090440520914505D0E43D2F329F8F
:10247000312D1124D32F082F10E00F1530F081E0FB
:1024800044E54F1508F082CF62CFF801EE59FD4FB9
:102490008081909112018923B9F0F801EE0FFF1F9E
:1024A000E754FE4F808182958F70609142058D9F29
:1024B000600D11247E2D8D2D0E940409462F282F9A
:1024C000672FC8010E94E7070F5F1F4FD6CF80918B
:1024D00011010E948C06F92EE0904305D09044052E
:1024E00020914505D0E43D2F329F312D1124D32F6B
:1024F000082F10E00F1508F0C2CFF801EE59FD4F7C
:102500008081909112018923D9F0F801EE0FFF1F0D
:10251000E854FE4F6081D69FB001112455E07595B7
:1025200067955A95E1F780914205680F7E2D8D2DB4
:102530000E940409462F282F672FC8010E94E70731
:102540000F5F1F4FD7CF809111010E948C06D82FAB
:10255000192FF090420500914305E09044056091E9
:1025600045056695669566958091100590911105D3
:102570000E94FA08E82F86FDE0952E2F2F7086FD29
:102580002F5FE695E695E695E670F0E0EB59FE4F95
:102590009181929F902D212D112492959F702295CB
:1025A000207F922B2081920F87FD9195892F87FDA7
:1025B0008195880F282F3E2D239F212D1124822FB6
:1025C0006F2D702F0E940409062FD72EC82EED2ED6
:1025D000F12CE11628F081E0153508F4D7CEB7CEFE
:1025E000F701EE59FD4F808190911201892331F05E
:1025F0002C2D402F6D2DC7010E94E7074FEFE41AE5
:10260000F40AE7CF8BEB97E00E94770BBFCE81E90E
:1026100097E0FACF84E898E00E94C20AB7CE85E638
:1026200098E0FACF8AE498E00E94110BAFCE8EE2D8
:1026300098E0FACF8FE897E0E7CF86E897E0E4CF1D
:102640008DE797E0E1CF84E697E0DECF86E597E07F
:10265000EBCF82ED98E0E0CF8DE198E0DDCF809187
:1026600011010E948C06782EA92E809113018823D7
:1026700061F040E060E080E00E94E407ECE5F3E018
:102680008BE4DF011D928A95E9F780911101811198
:1026900015C080915803909159030E94C30421E012
:1026A0008931910508F420E020935703499730F0D1
:1026B0000E94D2049093590380935803C12CB12CEB
:1026C000D12C9FE0892E25E5622E3AEA932E5524DF
:1026D000539405C0F0E1FB1508F457C0D12C2D2D03
:1026E00030E08C9C80011124F801E359FE4FE20F89
:1026F000F31FE080E71408F440C0EA1408F03DC07E
:10270000B394F12CF701EE59FD4F808190911201A5
:10271000892309F432C0045A1C4F020F131FF80119
:10272000D0813D2F262D321B08F430E070914305F7
:10273000292D4D2F240F08F42FEF40914405822FAF
:10274000880F820F8E5F282F249F212D1124822F26
:10275000692D631B0E940409462F282F672FC7018C
:102760000E94E70780915703882339F02D2F352DDC
:10277000231B08F420E0D8012C93D394BFE0DB1294
:10278000AECFC394E5E0CE12A5CF81E024E52A15B3
:1027900008F0FCCDDCCDD091440533E0D39F80011F
:1027A00011241695079516950795502EAD2EB12C30
:1027B0008FEF90E0B5010E941427762E80911301CF
:1027C000882371F040E060E080E00E94E407ECE5DF
:1027D000F3E08BE4DF011D928A95E9F710925B0329
:1027E00080915A038F5F80935A03F12CE12CA01A39
:1027F000B10A6701612CC701845A9C4F4C0180913A
:102800005B03862909F045C00E94B12785359540B4
:102810000CF03FC0F401D083F601E359FE4FE08194
:10282000EF3FD1F0D601A45ABC4F2C91F0E05216E4
:1028300008F040C030E0201B310B209FC001219FD9
:10284000900D309F900D1124B5010E940027262F76
:102850004D2FCF010E94E7076394FFE0CF0ED11CFC
:1028600025E06212CCCF3FEFE31AF30A4FE0E41603
:10287000F10409F0BECF80915A03781202C0109281
:102880005A0380915B038F5F8D31F0F480935B037B
:102890005ECDF601E45AFC4F8081882309F4BCCF59
:1028A0008D1708F0B9CF90915A037912B5CF8150A6
:1028B0008083B2CFD29FC0011124B8010E940027AB
:1028C000462F20E060E0C5CF10925B0329E833E09B
:1028D00084E04BE653E09FEF9D0FACE5B3E0F901D8
:1028E000843041F4DC966C91DC97D61303C0DC96FF
:1028F0009C93DC9760816D1710F09083D7871196B9
:1029000031964A175B0761F781502F5031098111C9
:10291000E4CF1DCD8FE497E00E94580A37CD89E4BB
:1029200097E0FACF8091140521E0382F321B08F48C
:1029300030E0832F60E377E00E94980927CD60E3C1
:1029400077E080E0F9CF8091140521E0482F421B09
:1029500008F440E0842F65EF76E0EECF65EF76E097
:10296000F0CF8091140521E0382F321B08F430E0BD
:10297000832F63EC76E0E0CF63EC76E0E2CF8091EA
:10298000140521E0482F421B08F440E0842F6BEA35
:1029900076E0D2CF6BEA76E0D4CF8091140521E0C7
:1029A000382F321B08F430E0832F65E976E0C4CF7E
:1029B00065E976E0C6CFCC2309F46ECCF9CCC093A0
:1029C0000F01837080930E010E94AD1083E090CCC4
:1029D00080914005882351F048E050E068E170E0C4
:1029E00081E495E00E94F527109240054091100582
:1029F0005091110560911205709113052FB7F8944D
:102A00008091BB049091BC04A091BD04B091BE0420
:102A10002FBF841B950BA60BB70B4097A105B105E3
:102A200008F43ACC1092140137CC9091130392FB26
:102A3000222720F9281779F080FB92F9909313034D
:102A4000609112037091130384E090E00E942328A8
:102A500082E00E94D40E0895AAE0B0E0E2E3F5E13E
:102A60000C9430278E010F5F1F4F8AE0F8011192FE
:102A70008A95E9F791E5E92E91E0F92E680126E5BE
:102A8000422E21E0522E66246394712C45E6842E5A
:102A900041E0942EF70181917F018F3F09F445C0F9
:102AA000F894E82FE295EF70F0E021A18F70A30178
:102AB00002C0440F551F8A95E2F7CA01922F982B46
:102AC00091A392A18095892382A3789400C0E6E522
:102AD000F1E021E030E0B12CA12C41914F3F09F40D
:102AE0004BC0A42FA295AF70B0E090968C9190E06F
:102AF0004F7002C0959587954A95E2F780FD3CC0DE
:102B0000C901A82AB92A220F331F8E169F0629F75A
:102B1000F701319780818F3F11F00E94BD0B50EA81
:102B20005A95F1F7F601B182A082F2E0CF0ED11CE6
:102B30004E145F0409F0AECF4AE050E0B80186E0E1
:102B400093E00E94C127892BE1F08AE0F801A6E01A
:102B5000B3E001900D928A95E1F781E0809305033F
:102B60000E94D204909304038093030310E0812F0A
:102B70002A96E0E10C944C2790E080E0C2CF10E070
:102B80001FC010910503112389F3809103039091D5
:102B900004030E94C304059748F34AE050E066E04E
:102BA00073E084E193E00E94C127892B41F38AE01E
:102BB000E6E0F3E0A4E1B3E001900D928A95E1F73D
:102BC00010920503D4CF2091FE028091F502282BAC
:102BD0008091F402882381F0282B30E08CEB92E086
:102BE000FC014191CF0141113F5FF2E0823C9F0720
:102BF000B9F731111092F4022093BA0248E050E084
:102C000066EF72E08AEB92E00E94C127892BA9F05F
:102C100088E0EAEBF2E0A6EFB2E001900D928A952F
:102C2000E1F7E091B604F091B704309731F00280FB
:102C3000F381E02D8AEB92E009950895CF931092ED
:102C4000FE02C6E0ECEBF2E0DF018C2F1D928A95CC
:102C5000E9F790E080E00E94290590E080E00E9482
:102C600004051092F5020E94E315EEEAF4E0DF019C
:102C70001D92CA95E9F71092A7041092A804109229
:102C8000A9040E945B05CF910895AAE2B0E0EBE4AD
:102C9000F6E10C943D278EEC94E02091F100FC01CC
:102CA0002193CF01F4E0863D9F07B9F78091CF04CF
:102CB000833009F470C0B8F4813009F447C0823021
:102CC00009F4B1C08091E80083FF7EC28091CE04F8
:102CD0009091CF049A3008F077C2E92FF0E0E155E7
:102CE000F74D0C9428278A3009F48CC08B3009F4F6
:102CF0006FC0893039F78091CE04813219F7809105
:102D0000D2049091D3040297E8F68091E800877F7F
:102D10008093E8008091E80082FF38C09091F30032
:102D20008091F200029731F48091F100813011F02E
:102D3000863021F48091F1008093C1048091E800F5
:102D40008B778093E8000E94B503BCCF8091CE04BE
:102D5000813A09F0B7CF8091E800877F8093E8003F
:102D60008091D2049091D304892B61F468E082ECC5
:102D700094E070E00E9461048091E8008B7780937A
:102D8000E800A0CF60E090E080E0F3CF8091CC0439
:102D90008111C0CF97CF8091CE04813A09F092CFB4
:102DA0008091D2049091D304892B09F08BCF80912C
:102DB000E800877F8093E8008091E80080FFFCCFE7
:102DC000809110018093F1008091E8008E77B9CF57
:102DD0008091CE04813209F075CF8091D204909118
:102DE000D304892B09F06ECF8091E800877F809310
:102DF000E8000E94B5038091D004809310010E94E6
:102E00001E1660CF8091CE04813209F05BCF809195
:102E1000E800877F8093E8000E94B5038091D10489
:102E20008093C0044FCF8091CE04813A09F04ACFFD
:102E30008091E800877F8093E8008091E80080FF20
:102E4000FCCF8091C004BECF803899F0823809F061
:102E5000BBC18091D2048F70873008F0B5C18093D8
:102E6000E9008091EB0085FB882780F91092E9004A
:102E700006C08091CA049091CB0491118260909118
:102E8000E800977F9093E8008093F1001092F100A2
:102E90008091E8008E7794C1882309F482C1823042
:102EA00009F092C18091D004811185C18091D20432
:102EB0008F702FEF280F263008F086C18093E9002D
:102EC0002091EB0020FF77C1933031F48091EB002B
:102ED00080628093EB006FC19091EB0090619093C2
:102EE000EB0021E030E001C0220F8A95EAF7209341
:102EF000EA001092EA008091EB008860EACF81112D
:102F000063C11091D0041F778091E3008078812BFA
:102F10008093E3008091E800877F8093E8000E941F
:102F2000B5038091E80080FFFCCF8091E3008068CA
:102F30008093E30082E0111183E08093CC0444C1CC
:102F40008058823008F040C18091D0049091D10423
:102F50008C3D23E09207A1F583E08A838AE289838E
:102F60004FB7F894DE01139620E03EE051E2E32FE4
:102F7000F0E050935700E49120FF03C0E295EF701A
:102F80003F5FEF708E2F90E0EA30C0F0C7968D93D0
:102F90009D932F5F243159F74FBF8091E800877FC1
:102FA0008093E8006AE270E0CE0101960E9461041D
:102FB0008091E8008B778093E80006C1C096E7CF48
:102FC0004091D2045091D304292F33272330310567
:102FD00009F444C078F52130310509F46FC08BE362
:102FE00090E0E9E5F5E02230310509F0EDC02091EF
:102FF000E800277F2093E8002091D4043091D50485
:103000008217930708F49C0140E02115310509F06F
:1030100064C0411162C08091E80082FDC9CF8091F7
:10302000CC04882329F2853019F28091E80083FFCF
:10303000F2CFBECF21323105A9F12232310509F09C
:10304000C3C04115510509F443C04130510509F091
:10305000BBC08BE790E0EAE9F4E0C9CF9927813063
:103060009105C1F0009759F0029709F0ADC0E6EA6A
:10307000F5E0E4918E2F90E0E6EAF5E007C0E2EC9F
:10308000F5E0E4918E2F90E0E2ECF5E0009709F492
:103090009BC0ADCFE2EBF5E0E4918E2F90E0E2EB48
:1030A000F5E0F4CF4115510571F04130510509F0BB
:1030B0008BC089E090E0E4E8F5E099CF82E190E010
:1030C000E4E9F5E094CF89E090E0EBE6F5E08FCF1E
:1030D00084E490E0E5E1F5E08ACF8091CC04882398
:1030E00009F466CF853009F463CF8091E80083FD51
:1030F0005FCF8091E80082FD8ECF8091E80080FF55
:1031000084CF9091F3008091F2002115310519F0E0
:103110008830910550F041E0089709F040E0809137
:10312000E8008E778093E80070CF44914093F100DF
:103130003196215031090196E8CF803809F044C01A
:103140008091E800877F8093E8008091CD04809390
:10315000F1009ECE811138C01091D0041230A0F53C
:103160008091E800877F8093E8001093CD040E944F
:10317000B503112311F084E005C08091E30087FDC1
:10318000FACF81E08093CC0442E061EC81E00E94C0
:10319000D40342E261EC82E00E94D4038091CC042B
:1031A00013C08091D004813079F481E0933009F02C
:1031B00080E08093CB041092E9008091E800877F43
:1031C0008093E8000E94B5038091E80083FF0AC065
:1031D0008091E800877F8093E8008091EB00806217
:1031E0008093EB00AA96E3E00C9459270E941E16E8
:1031F0002FEF84E39CE0215080409040E1F700C035
:10320000000088E19CE00FB6F894A89580936000D8
:103210000FBE90936000FFCF882321F00E94020E22
:103220000E94E3150895882339F09091FE02982BAF
:103230009093FE020E94E3150895882309F456C076
:10324000823879F40E944E0581FF50C089E30E94C4
:10325000EB040E94E31589E30E94DE040E94E3155B
:103260000895833859F40E944E0580FF3FC083E5DE
:103270000E94EB040E94E31583E5EECF843859F4F5
:103280000E944E0582FF32C087E40E94EB040E9438
:10329000E31587E4E1CF9CEF980F913AE8F290E2D2
:1032A000980F983050F4877091E001C0990F8A957B
:1032B000EAF7892F0E94020ED1CF9BE5980F933039
:1032C00028F490E080E00E942905089598E5980F81
:1032D0009B3128F490E080E00E940405089593E378
:1032E000980F933118F460E00E94230F0895CF9354
:1032F000C82F8823C9F08238C9F40E944E0581FD89
:1033000013C089E30E94EB040E94E3152FEF87EEC0
:1033100093E0215080409040E1F700C0000089E335
:103320000E94DE040E94E315CF9108958338A1F432
:103330000E944E0580FDF8CF83E50E94EB040E94B9
:10334000E3152FEF81EE94E0215080409040E1F7AB
:1033500000C0000083E5E4CF8438A1F40E944E054C
:1033600082FDE2CF87E40E94EB040E94E3152FEF79
:1033700081EE94E0215080409040E1F700C00000D1
:1033800087E4CECF8CEF8C0F813A70F4ECEBF2E057
:1033900082EC92E02191C217E1F18E179F07D1F7DD
:1033A0008C2F0E94EB04BECF80E28C0F883068F433
:1033B000C77021E030E001C0220FCA95EAF7809182
:1033C000FE02822B8093FE02ADCFEBE5EC0FE330E3
:1033D00040F4F0E0E85EFE4F808190E00E94290515
:1033E000A3CFE8E5EC0FEB3150F4F0E0EE0FFF1F58
:1033F000E55EFE4F808191810E94040595CF83E3B5
:103400008C0F833108F090CF61E08C2F0E94230F46
:103410008BCF8C2F0E94DE040E94E315C1CF0F9347
:103420001F93CF93DF93C62FD42F022FFC018581EA
:103430008823A9F060933F050E94D20490933E0533
:1034400080933D05C77081E001C0880FCA95EAF7F7
:103450000E941319DF91CF911F910F9108958091D0
:103460003F05681335C080913D0590913E050E944F
:10347000C304883C910560F510E21D0FCD17B9F02B
:1034800080E28C0F883040F4C77081E001C0880F63
:10349000CA95EAF70E940C19183048F481E09D2F74
:1034A000977001C0880F9A95EAF70E941319802F30
:1034B0000E947719802F0E941D19183058F6D77076
:1034C00081E001C0880FDA95EAF70E940C19C2CF9B
:1034D000C77081E001C0880FCA95EAF7F6CFA8E06F
:1034E000B0E0E5E7FAE10C943E2766EE7EEF90E06F
:1034F00080E00E94232860E082E090E00E9405289E
:1035000081E090E0909300038093FF0261E083E00C
:1035100090E00E94052860E074E184E090E00E9461
:10352000232860E086E090E00E9405286FEF87E0A6
:1035300090E00E94052840E050E0BA0188E090E069
:103540000E94172860E084E290E00E94052860E075
:1035500087E190E00E94052860E08CE090E00E9406
:10356000052860E08DE090E00E94052819821A820B
:103570001B821C821D821E821F82188648E050E03A
:1035800068E170E0CE0101960E94F52740E050E02E
:10359000BA0180E290E00E94172840E050E0BA01B2
:1035A0008FE090E00E94172840E050E0BA0183E1EC
:1035B00090E00E9417282896E2E00C945A27B0E089
:1035C000A0E0E5EEFAE10C9436278C01FC01848141
:1035D000882341F121E0408151816281738195818D
:1035E0000E940710EC01FC01E851FC47E730F105AF
:1035F000A8F5E754F74D0C94282726E241EE61EE3A
:10360000C8010E940F1A8091F302877059F0F801E7
:103610008581882339F08091130382FF03C082E003
:103620000E94D40ECDB7DEB7EAE00C94522727E211
:1036300045EE65EEE5CF26E241EE60EEE1CF27E212
:1036400045EE64EEDDCF26E241EE62EED9CF27E211
:1036500045EE66EED5CF28E241E0EBCFF80185815B
:10366000882309F4CCC310923F05CE01905783976D
:1036700008F0B1C384E090E00E94EF279093130319
:1036800080931203FE01E150F047E232F10520F48D
:10369000E054F74D0C9428278091120381608093A9
:1036A000120395C0809113038860809313038FC029
:1036B000809112038260F3CF809112038460EFCF78
:1036C000809112038860EBCF809113038160EDCF6E
:1036D000809113038260E9CF809112038061DFCF74
:1036E000809112038062DBCF809112038064D7CF78
:1036F0000E941E16809112038068D1CF8091120320
:103700008C60CDCF809113038360CFCF8091120363
:103710008E7FC5CF80911303877FC7CF809112031F
:103720008D7FBDCF809112038B7FB9CF8091120323
:10373000877FB5CF809113038E7FB7CF809113031E
:103740008D7FB3CF809112038F7EA9CF809112031A
:103750008F7DA5CF809112038F7BA1CF0E941E1673
:10376000809112038F779BCF80911203837F97CF35
:10377000809113038C7F99CF8091120382FB99274C
:1037800090F921E0922790FB82F990FB83F987CF93
:1037900080911303982F909591708E7F892B90FBC9
:1037A00081F983CF90911203892F8F7B96FF8064DC
:1037B00076CF0E941E1690911203892F97FB87F9EE
:1037C00080586DCF61E08EE090E00E940528609106
:1037D00012037091130384E090E00E9423280E945A
:1037E0001E1611CF60E0EFCF90911203892F8F7ECC
:1037F00094FF806154CF90911203892F8E7F90FFA8
:1038000081604DCF90911303892F877F93FF88604C
:103810004CCF85E3EFC28091C202811104C089E2DE
:103820000E94DE04E9C285E3FBCF8091410591E06F
:103830008927809341051092140180914005816091
:1038400080934005E0CE47E756E061E876E00E94CD
:10385000D205D9CE41E856E067E776E0F8CF43E6F7
:1038600056E06DE676E0F3CF4DE656E063E676E0AF
:10387000EECF49E456E066E576E0E9CF46E556E06E
:1038800069E476E0E4CF4FE256E06CE376E0DFCF28
:103890004CE356E06FE276E0DACF43E156E061E2D6
:1038A00076E0D5CF41E256E063E176E0D0CF81E02B
:1038B0000E941D03A8CE85E0FBCF8DE0F9CF82E109
:1038C000F7CF0E941E16FFEF24E33CE0F1502040AA
:1038D0003040E1F700C000000E9489106FEF7FEFD9
:1038E00090E080E00E9423280E94F6188091130344
:1038F00082FB882780F991E089270E941515F8013D
:103900008581C081D181882309F44DC0CE010E94F8
:10391000130EF82E682FCE010E94870EBE018F2D48
:103920000E94C50C0E94E40CD82FC92FA82EF801C4
:10393000C580B680B2943FE0B3228091F3028770D5
:1039400009F1EC2CCC20F9F0892F807F803469F0CC
:1039500080E28D0F8830B0F0892F807E803229F48C
:10396000F1E0FD1778F4BB2069F08091130382FF2A
:1039700009C082E00E94D40E8091F3028770EE2489
:10398000E3948111E12CDC2ED2942FE0D2222BE0A3
:103990002D1508F46DC0ED2DF0E0EE51F74D0C94AF
:1039A000282780E0AACFCE010E94540EF82EB6CF71
:1039B0003C2F3F70F32EC07F19F0F29490EFF92264
:1039C000CC20B9F0FF2069F080E28D0F883010F034
:1039D000A11009C08091FE02F82AF092FE020E9416
:1039E000E3158D2F43C08091F502F82AF092F5027D
:1039F000F6CF8D2F0E941D19FF20D1F1D05ED83057
:103A000010F0A11004C08F2D0E94020E06C0F09489
:103A10008091F502F822F092F5020E94E31528C089
:103A20008C2F8F70F82EC07FC03219F0F29480EF87
:103A3000F822AA2059F091E0A91609F479C0CC2007
:103A400009F485C0BB2009F447C0CBCF8091130394
:103A500082FD3EC0CC20B1F1FF2039F08091FE0202
:103A6000F82AF092FE020E94E31580E00E94771986
:103A70002D2D2850330B2430310510F40E944E05B3
:103A8000EE20A9F08091F30280FD11C0F8011582AB
:103A90008695869586950E94EB0EC8010E94DF1AD6
:103AA0008091F3028695869586950E94C20E20E04D
:103AB000F8014081518162817381848195810E94E6
:103AC0000710B0CD80E00E941D19FF2089F29BCF26
:103AD000CC20A1F0B11004C08F2D0E941319C8CFC3
:103AE000E1E0BE12C5CF8091F4029F2D9823F91614
:103AF00009F4BECFF82AF092F402BACFB110B8CFD1
:103B00008F2D0E940C199091F4028F2D892329F09A
:103B10008F2D809589238093F4028091C3029F2D7D
:103B2000982309F4A5CFF094F822F092C302A0CF15
:103B3000CC2029F0F5E0FB1508F49ACFCDCF24E096
:103B40002B1508F495CF8F2D0E940C1991CFBB2017
:103B5000D1F339E3A31209C08FEF97EEE3E0815070
:103B60009040E040E1F700C000008D2F0E941D1939
:103B70007FCF8C2F86958695837069F0813009F010
:103B800077CF8D2F9C2F9370C11002C080E090E002
:103B90000E9404056DCF8D2F9C2F9370C11002C021
:103BA00080E090E00E94290563CF6C2D8D2F0E944C
:103BB000230F5ECF8C2F837009F03FC0C11058CF08
:103BC0004D2F429546954770440F440F2D2F2F706F
:103BD00030E0042E02C0220F331F0A94E2F790E077
:103BE00080E0D4FF09C08FE090E002C0880F991FE9
:103BF0004A95E2F780959095C695C695C370C230F8
:103C000099F078F44091FF0250910003C13039F0EF
:103C1000822B932B842395230E94FB0E29CF242BE8
:103C2000352B822B932BF8CF822B932B2091FF02E5
:103C30003091000382279327EFCF8695CC2011F097
:103C40008C2F8170882309F413CF4D2F4295469510
:103C50004770440F440F2D2F2F7030E0042E02C008
:103C6000220F331F0A94E2F790E080E0D4FF09C0EE
:103C70008FE090E002C0880F991F4A95E2F7809587
:103C80009095C695C695C370C23099F078F440916E
:103C9000100350911103C13039F0822B932B8423F0
:103CA00095230E94BD0EE4CE242B352B822B932B23
:103CB000F8CF822B932B2091100330911103822790
:103CC0009327EFCFCF70CC2029F08C2F0E94EB0EE2
:103CD0008D2F03CF8D2F0E940C198C2F0E94C20EA6
:103CE000C7CE8D2FF2EFAF1699F1FA1570F020EFD5
:103CF000A216D1F031EFA31691F0CC2009F45BC0ED
:103D0000B1106FCE8C2F8F7127C093EFA91639F1A8
:103D1000E4EFAE12F2CF8091130382FD2EC08C2F00
:103D20008F71CC20D9F218C0CC2069F0F4E0FB15DB
:103D300008F49ECECF7181E090E002C0880F991FF9
:103D4000CA95E2F7B8CF25E02B1508F491CEF2CF53
:103D50008C2F8F71C110C2CF0E94EB0E89CE90E0E4
:103D600080E0CC2009F49DCFCF7181E090E002C0CB
:103D7000880F991FCA95E2F794CFCC2089F0CF71B4
:103D80008C2F0E94EB0E8091130382FF07C038E056
:103D9000C39FC001112483608093F3028C2FDCCF7A
:103DA00081E00E94D40E81E08B1508F061CE82E0A4
:103DB0000E94D40E5DCEBB2059F0893309F0D5CED8
:103DC0009FEFE7EEF3E09150E040F040E1F7CBCE1B
:103DD0008C2F8F7183CFC631FCE7DF0719F58091F7
:103DE000FE028A7A91E009F490E09093C202811178
:103DF00010CD89E20E94EB040E94E31504CCC63189
:103E00002CE7D20709F407CD8091FE028272FE01F1
:103E1000E052F847E531F10508F071CDE251F74D78
:103E20000C942827C3303CE7D30709F457CD50F44E
:103E3000C1159CE7D90709F444CDC130DC4709F42A
:103E400053CD5DCDCB35FCE7DF0709F4AACDCC35EA
:103E50002CE7D20709F44ACDCA35DC4709F04FCD2B
:103E600081E04BCDCF93DF938091F202807F09F008
:103E70004DC08091F102882309F448C0E0910F05FC
:103E80005091D604C091ED02D091EC026091EE0207
:103E90007091EF0247E05E17C9F18E2F90E0E49F2A
:103EA000F0011124E952FB4F2481222391F1489F14
:103EB000F001499FF00D1124DF01A952BB4F11966B
:103EC0002C9111972C1325C02C912D1322C01596DF
:103ED0002C91159721111DC012962D913C91261BF6
:103EE000370B283C3105A8F48091F2028F70806175
:103EF0008093F202E352FB4F80818F708061808358
:103F00008CEE92E00E94DF1A0E94090EDF91CF91A1
:103F10000895FC013196E770BECFA4E1B0E0E3E97B
:103F2000FFE10C9434278C0186E0F801DE011F9636
:103F300001900D928A95E1F7F8018481E5809CEE6D
:103F4000A92E92E0B92E9091F002911128C08823F9
:103F500019F1EE20F1F0C8010E94000FF82E88231D
:103F6000C1F087E0F801D50101900D928A95E1F743
:103F70008091F002813031F48091EC029091ED0259
:103F80000E94470E0E94321F8F2D6496ECE00C9425
:103F90005027C8010E94DF1AFF24F394F5CFD08088
:103FA000C18082809380F090F1022091EE023091E6
:103FB000EF02A401421B530BFF2009F4D9C0483C77
:103FC000510508F092C08823F9F29091ED0280919A
:103FD000F202282F207F09F056C0C91214C0909118
:103FE000EC02D91210C0E11048C08F70806180933C
:103FF000F2028CEE92E00E94DF1A8091F202F80148
:104000008683F12CC1CFE11038C06C2D8D2D0E941C
:1040100036036C2D8D2D0E943603E82E8111F1CFD1
:10402000DF86C88A8F8598890E94470E292F22959E
:104030002F70243058F49F70223088F0992399F023
:10404000F8019681907F79F4FE2C9ECF2A5F2F7025
:10405000223068F0C8010E94DF1AEF2CF5CF9923B7
:1040600011F0882389F3805E883070F3F3CF803FAE
:1040700058F3815F833070F7E7CF8091F20281605F
:104080008093F202BECFC91207C09091EC02D91200
:1040900003C0EE2009F48DC0C8010E94000F8823E0
:1040A00009F477CFEE2009F474CF8091F2028032C8
:1040B00088F02091EC023091ED02398728879B86A9
:1040C0008A869091F0029C871D868E87CE01089685
:1040D0000E94DF1A87E0F801ACEEB2E001900D9289
:1040E0008A95E1F70E94321F57CF9091F202292F53
:1040F000207F51F48CEE92E00E94DF1A87E0F501F8
:1041000011928A95E9F77DCF882309F43DCF8091FC
:10411000ED028C1110C08091EC02D8120CC0E1109D
:104120000AC09683C8010E94DF1A87E0F501119248
:104130008A95E9F729CFC8010E94000F882309F466
:1041400028CFEE2009F425CF8091F202803210F2C0
:104150002091EC023091ED023A8329839C828B827C
:104160009091F0029D831E828F83CE010196B0CF85
:10417000483C5105D0F6882309F40ECFFE2CEE20E2
:1041800009F407CF8091ED028C1120C08091EC02E0
:10419000D8121CC08091F20280FD0FC0982F907F32
:1041A00061F08683903F31F0982F907F905F8F7001
:1041B000892B8683C8010E94DF1A87E0F801ACEEE4
:1041C000B2E001900D928A95E1F7DECEC8010E941F
:1041D000000F81117FCF8091F20281608093F20203
:1041E000C8010E94DF1AD0CEABE1B0E0EAEFF0E206
:1041F0000C943C274E8B5F8B688F798F8A8F9B8FB7
:10420000192F91111092F5021D8A86E0FE01769613
:10421000DE011F9601900D928A95E1F70A8D002329
:1042200041F021E04F85588969897A89C8010E9447
:1042300007100B8B1C8B87E0FE013F96DE01189662
:1042400001900D928A95E1F7CE0108960E948D1F8C
:1042500081112AC087E0FE013896DE011196019097
:104260000D928A95E1F78C858823F1F02091D60490
:1042700030E0C90101968770992740910F054817D2
:104280001906E9F097E0929FD001939FB00D112499
:10429000A952BB4FFE01319601900D929A95E1F71C
:1042A0008093D6040E94090E17E080910F0590912B
:1042B000D604891312C06B96E4E00C9458270E9430
:1042C0001E161092D60410920F0587E0ECEEF2E075
:1042D000DF011D928A95E9F7E7CF819FC001112484
:1042E00089529B4F0E948D1F882329F380910F05CF
:1042F00090E001968770992780930F05D6CFA6E0AE
:10430000B0E0E5E8F1E20C943C270E94D2048C0175
:1043100080910103909102038017910781F0198227
:104320001A820E94D204682F49815A81792F80E035
:1043300090E00E94F420109302030093010326965C
:10434000E4E00C9458271F920F920FB60F9211249D
:104350002F933F934F935F936F937F938F939F938D
:10436000AF93BF93CF93DF93EF93FF93D091E90087
:10437000DF708091EC00C82FC17080FDC0E8109202
:10438000E9008091F000877F8093F00078940E948C
:1043900045161092E9008091F00088608093F0004B
:1043A000CD2BCF70C093E900FF91EF91DF91CF91BA
:1043B000BF91AF919F918F917F916F915F914F913D
:1043C0003F912F910F900FBE0F901F9018951F9245
:1043D0000F920FB60F9211242F933F934F935F9339
:1043E0006F937F938F939F93AF93BF93EF93FF93BD
:1043F0008091E10082FF09C08091E20082FF05C048
:104400008091E1008B7F8093E1008091DA0080FF52
:1044100024C08091D80080FF20C08091DA008E7F78
:104420008093DA008091D90080FF9DC080E189BD32
:1044300082E189BD09B400FEFDCF81E08093CC0408
:104440008091BF04811109C00E9465030E94060487
:104450008091E20084608093E2008091E10080FF1F
:1044600017C08091E20080FF13C08091E2008E7F30
:104470008093E2008091E20080618093E20080916D
:10448000D80080628093D80019BC85E08093CC046A
:104490008091E10084FF2BC08091E20084FF27C05F
:1044A00080E189BD82E189BD89B5982F917080FF37
:1044B000FBCF8091D8008F7D8093D8008091E10060
:1044C0008F7E8093E1008091E2008F7E8093E200F6
:1044D0008091E20081608093E2008091CD04882386
:1044E00009F447C084E08093CC048091CC0480918F
:1044F000E10083FF27C08091E20083FF23C0809109
:10450000E100877F8093E10082E08093CC041092E9
:10451000CD048091E1008E7F8093E1008091E200E4
:104520008E7F8093E2008091E20080618093E200C0
:1045300042E060E080E00E94D4038091F000886057
:104540008093F000FF91EF91BF91AF919F918F9178
:104550007F916F915F914F913F912F910F900FBE7F
:104560000F901F90189519BC1092CC041092BF04A4
:1045700074CF8091E30087FD93E09093CC04B5CF96
:1045800078941F921FB61F9211248F939F93AF931D
:10459000BF938091BB049091BC04A091BD04B091E5
:1045A000BE040196A11DB11D8093BB049093BC0471
:1045B000A093BD04B093BE04BF91AF919F918F9122
:1045C0001F901FBE1F9018951F921FB61F92112497
:1045D0008F939F93AF93BF938091BA04811113C0BF
:1045E0008091BB049091BC04A091BD04B091BE0425
:1045F0004196A11DB11D8093BB049093BC04A09370
:10460000BD04B093BE04BF91AF919F918F911F9055
:104610001FBE1F901895CDB7DEB769970FB6F894F7
:10462000DEBF0FBECDBF85B7806885BF85B7806808
:1046300085BF84B7877F84BF0FB6F894A895809113
:104640006000886180936000109260000FBE80E877
:1046500090E00FB6F89480936100909361000FBED4
:104660008BEB9BE09093B9028093B8020E946503A4
:104670000E9406048091E20084608093E2007894B6
:104680008091CC048823A1F01091E9001F709091D3
:10469000EC00892F817090FD80E8182B1092E900C2
:1046A0008091E80083FD0E9445161F701093E90079
:1046B00082E084BD93E095BD9AEF97BD80936E0034
:1046C00001E511E0D8018D918D018F3F11F00E941D
:1046D000BD0BB1E006351B07A9F706E511E0F801AF
:1046E00081918F018F3F11F00E94BD0BF1E00536E3
:1046F0001F07A9F78AE0E4E1F3E0DF01282F1D920C
:104700002A95E9F7E6E0F3E0DF011D928A95E9F7E3
:1047100090E080E00E94EF27863E9E4F11F00E94BD
:104720006F1A82E090E00E94E72780931E0384E0E6
:1047300090E00E94EF2790931303809312030E944E
:104740002C15EFEFF6E721E0E150F0402040E1F7D3
:1047500000C000000E942C158091140380FF08C047
:104760006FEF7FEF90E080E00E9423280E94891085
:1047700083E090E00E94E72790E00E94FB0E0E94F9
:104780001006109214058FEF9FEF90932E058093E3
:104790002D059093300580932F05909332058093DB
:1047A00031059093340580933305909336058093BB
:1047B0003505909338058093370590933A0580939B
:1047C000390590933C0580933B0510922A03909302
:1047D000440380934303909346038093450390934F
:1047E00048038093470390934A038093490390932F
:1047F0004C0380934B0390934E0380934D0390930F
:10480000500380934F03909352038093510390E0A1
:1048100080E00E94EF27863E9E4F21F00E946F1A93
:104820000E94DA1081E08093400548E050E068E1A2
:1048300070E081E495E00E94D727109240058091B6
:1048400041058C7F11F40E94DA1084E091E090938E
:10485000B7048093B6048091CC0400E112E1853066
:1048600009F4E3C00E942C15EFE1F3E0F88BEF8729
:1048700024E133E03A8B298BD901219131918D913B
:104880009D9143E0E932F40709F4D9C028173907AC
:10489000A1F3712C612CF12CA989BA892D903D903E
:1048A000BA8BA98BEF85F88981919191F88BEF876D
:1048B0008215930509F429C26301E12C4424439431
:1048C000512C9C01222533253D8B2C8B8C899D8975
:1048D00084219521892B09F40AC242018220932068
:1048E000EF82F8860E94D2049A87898731E03B875D
:1048F00091E08114910409F490E09C874F815885E0
:1049000069857A858B850E94F4208114910439F0A1
:10491000F601E359FE4F80818F3F09F080C11D866B
:104920005D85052F10E080912A03800F912F911D46
:10493000099774F1F8E0AF2EB12CA01AB10AB801B2
:10494000655D7C4FA5018BE293E00E94CE27B80104
:104950006D5C7C4FA50183E393E00E94CE27A50107
:10496000440F551FB801660F771F6D5B7C4F83E4C2
:1049700093E00E94CE27B801655C7C4FA5018BE3D4
:1049800093E00E94CE2788E09D85891B80932A03AF
:1049900080912A0390E0EB89AE2FB0E09D01220FB9
:1049A000331F28543E4FAA0FBB1FBD0167547E4FD3
:1049B0004FC18091CC04843031F10E94F5101092E7
:1049C000BA0448E150E080E40FB6F894A89540930B
:1049D00060000FBE8093600083B7817F846083BFD7
:1049E00083B7816083BF7894889583B78E7F83BFB8
:1049F0000FB6F894A895809160008861809360005C
:104A0000109260000FBE8091CB04882371F00E9449
:104A10002C15E4E1F3E081919191892B09F0CBC150
:104A2000AEE1B3E0AE17BF07B1F78091CC0485309B
:104A300009F4BFCF0E941E160E944E0513CF2817FF
:104A4000390709F026CF0E947F210E94F51086E0E9
:104A5000EEEAF4E0DE01119601900D928A95E1F7FD
:104A6000D090AF041091B0040091B104E090B20472
:104A7000F090B3041092B0041092B1041092B204FA
:104A80001092B304812F802B09F445C08091AC04AF
:104A90009091AD040E94C3049C019091A7049923B6
:104AA00009F4A9C125313105B0F19F3F19F09F5F8D
:104AB0009093A704112359F00E94A4059FEF1116AB
:104AC0000CF491E0899F802D11248093B004002381
:104AD00059F00E94A40591E010160CF09FEF899FF9
:104AE000802D11248093B1048091B004882399F023
:104AF000C090B104CC2079F00E94C405882309F449
:104B000052C18093B0048C2D0E94C405882309F4FF
:104B10004CC18093B1048F2D8E2909F445C080913A
:104B2000AA049091AB040E94C3049C019091A80434
:104B3000992309F45BC121353105B0F19F3F19F08C
:104B40009F5F9093A804EE2059F00E9482059FEF8A
:104B50001E140CF491E0899F802D11248093B204DF
:104B6000FF2059F00E94820591E01F140CF09FEF86
:104B7000899F802D11248093B3048091B2048823EF
:104B800099F0E090B304EE2079F00E94C4058823E8
:104B900009F40DC18093B2048E2D0E94C4058823B0
:104BA00009F407C18093B3048091AF04D81217C0F1
:104BB0008091B004882311F0181311C02091B10422
:104BC000222311F002130BC09091B304992311F02A
:104BD000F91205C03091B204332309F402C10E94D6
:104BE0005B0586E0FE013196AEEAB4E001900D92DD
:104BF0008A95E1F70E944E0590912903891709F4DF
:104C00002ACE809329038FB7F8944091BB0450912A
:104C1000BC046091BD047091BE048FBF1CCE8B8B11
:104C200041E04D877DCE90E0FC01E65DFC4FD9016F
:104C30005C915183DB015C915187BB89B18B880FFB
:104C4000991FFC01E65DFC4F128E118E91E0842FBE
:104C500041E0480FFD859F1730F380932A03892890
:104C600009F445C0809141058C7F8C3409F03FC028
:104C7000F601E359FE4F80818F3F09F438C0B12C13
:104C8000A12C812C90E09C01220F331FA9014854D4
:104C90005E4F5F8B4E8BD901A754BE4FB98FA88F43
:104CA000F601E45AFC4FFE87ED878501912CF8014F
:104CB000E359FE4F80818F3F61F08F1039C0E910BA
:104CC00037C0AD85BE852C9130E2230F08F42FEF5D
:104CD0002C9393940F5F1F4F4FE09412E8CF83946F
:104CE0005FE0A50EB11C8BE4A816B104F1F6E394C5
:104CF000440C551C9FEFC91AD90AAFE0EA12E6CD61
:104D0000EF85F889329731822082F394BFE06B0EF1
:104D1000711CE5E0FE12C0CD8FB7F8944091BB0442
:104D20005091BC046091BD047091BE048FBF8DCEC4
:104D300090E0AE89BF894C91FC01EE0FFF1FE85453
:104D4000FE4F2081421B550BE88DF98D2081880F85
:104D5000991FFC01E754FE4F8081281B330B449FB1
:104D6000B001459F700D700D1124229FC001239F3B
:104D7000900D900D1124860F971F0E94A208893272
:104D800008F0A7CF28E2382F231B08F420E0F80111
:104D9000E45AFC4F213108F020E13081320F08F451
:104DA0003FEF308396CF81E0ACCE81E0B2CE81E0A0
:104DB000F1CE81E0F7CE09BD19BD09B400FEFDCFEB
:104DC0008091D8008F7D8093D8008091E000826030
:104DD0008093E0008091E00081FDFCCF0E941E16D0
:104DE00024CE822B892B09F4FCCEF9CE2B30310551
:104DF00008F0A6CED9CE2B30310508F058CE8BCE98
:104E0000AA1BBB1B51E107C0AA1FBB1FA617B707F0
:104E100010F0A61BB70B881F991F5A95A9F780950C
:104E20009095BC01CD01089597FB072E16F40094D0
:104E300007D077FD09D00E94002707FC05D03EF47B
:104E4000909581959F4F0895709561957F4F089536
:104E5000EE0FFF1F0590F491E02D09942F923F92E1
:104E60004F925F926F927F928F929F92AF92BF927A
:104E7000CF92DF92EF92FF920F931F93CF93DF9326
:104E8000CDB7DEB7CA1BDB0B0FB6F894DEBF0FBE83
:104E9000CDBF09942A88398848885F846E847D84D0
:104EA0008C849B84AA84B984C884DF80EE80FD80D2
:104EB0000C811B81AA81B981CE0FD11D0FB6F89448
:104EC000DEBF0FBECDBFED0108958F929F92AF92CE
:104ED000BF92CF92DF92EF92FF92CF93DF93EC01DC
:104EE000688179818A819B816115710581059105B0
:104EF00021F464E279ED8BE597E02DE133EF41E0B9
:104F000050E00E94292849015A019B01AC01A7EAFF
:104F1000B1E40E9448286B017C01ACEEB4EFA5011E
:104F200094010E945628DC01CB018C0D9D1DAE1D05
:104F3000BF1DB7FF03C00197A109B04888839983BB
:104F4000AA83BB839F77DF91CF91FF90EF90DF9093
:104F5000CF90BF90AF909F908F9008950E9465274B
:104F6000089580E091E00E9465270895B0E0A0E0F8
:104F70008093000190930101A0930201B09303017B
:104F80000895FB01DC0104C08D910190801921F48A
:104F900041505040C8F7881B990B0895FB01DC0174
:104FA00002C001900D9241505040D8F70895DC01A5
:104FB000CB01FC01F999FECF06C0F2BDE1BDF89A24
:104FC000319600B40D9241505040B8F70895F999C8
:104FD000FECF92BD81BDF89A992780B50895A8E1CA
:104FE000B0E042E050E00C94D927DC01A40FB51FDB
:104FF0004150504048F0CB01840F951F2E910E94E4
:10500000062841505040D0F70895262FF999FECF39
:1050100092BD81BDF89A019700B4021639F01FBA0B
:1050200020BD0FB6F894FA9AF99A0FBE0895039628
:10503000272F0E9406280E940528252F0E94062857
:10504000242F0C9406280196272F0E9406280C94E2
:105050000528052E97FB1EF400940E94402857FD5A
:1050600007D00E945B2807FC03D04EF40C94402824
:1050700050954095309521953F4F4F4F5F4F089584
:1050800090958095709561957F4F8F4F9F4F0895B4
:105090000E947D28A59F900DB49F900DA49F800D28
:1050A000911D11240895B7FF0C9448280E944828A8
:1050B000821B930B0895A1E21A2EAA1BBB1BFD01B4
:1050C0000DC0AA1FBB1FEE1FFF1FA217B307E407E7
:1050D000F50720F0A21BB30BE40BF50B661F771F3F
:1050E000881F991F1A9469F760957095809590951F
:1050F0009B01AC01BD01CF010895A29FB001B39FF8
:10510000C001A39F700D811D1124911DB29F700DD0
:10511000811D1124911D0895F894FFCFA311AF11A3
:10512000ED112A126712A312021307130A130F13A9
:10513000121317131A131D132013231326132913E5
:105140002C132F13CB138A148F1492149F14A314AF
:10515000AE14B114BC14BF14CA14CD14D81424173F
:105160004C17E4184C17E4187F17A017E4189D1883
:10517000AA181B1B1F1BFD1A171B231B271B2B1BEE
:10518000861BFB1B8E1B581B5C1B921B601B961BFC
:10519000A21B6C1BF41B701BA61B741BAA1BD21B2F
:1051A000781BAE1BD91B7E1BB41BBC1B641B9A1B3C
:1051B000681B9E1B821BB81BC81BE21BF21B521BE9
:1051C0008A1B021CD81CD81C101D101DB91DD51D12
:1051D000381D381DDA1D621E711E711E151C231C20
:1051E0002A1C2F1C341C391C3E1C431C481C4D1C03
:1051F000521C571C5B1C5D1C5F1C031B031B031B09
:06520000031B031B031B4E
:1052060001000000C0047510BF046E106710FFFF98
:105216000100FF000300FFFF818283E200E900EA4C
:1052260000B500B600B700CD008301CC008A01921C
:105236000194012102230224022502260227022AC2
:1052460002B300B4006F0070009F01CB019F02A063
:10525600023033673666F6F5F4F1C695939291906F
:105266009496973435003131295A1B750A54535296
:1052760051504F4E4D4C4B4A494847464544434290
:1052860041403F3E3D3C3B3A393837363534333280
:1052960031302F2E2D2C2B2A292827262524232270
:1052A60021201F1E1D1C1B1A191817161514131260
:1052B60011100F0E0D0C0B0A080C3C0C700CA40CF4
:1052C600D80CD83CA43C703C3C3C083CE040D04068
:1052D600C040B040A0409040804070406040504088
:1052E60040403040204010400040E030D030C030D8
:1052F600B030A03090308030703060305030403068
:105306003030203010300030E020D020C020B020D7
:10531600A020902080207020602050204020302047
:10532600202010200020E010D010C010B010A010D7
:105336009010801070106010501040103010201027
:1053460010100010E000D000C000B000A0009000D7
:105356008000700060005000400030002000100007
:105366000000020202020202020202020404040413
:1053760004040404040404040404040404040404E7
:1053860004040404040404040404040404040404D7
:1053960004040404040404040404040404040404C7
:1053A60004040404040404040404040404040404B7
:0853B6000404040404040400D3
:00000001FF
